{
  "contractName": "Basic23Token",
  "abi": [
    {
      "constant": true,
      "inputs": [],
      "name": "totalSupply",
      "outputs": [
        {
          "name": "",
          "type": "uint256"
        }
      ],
      "payable": false,
      "stateMutability": "view",
      "type": "function"
    },
    {
      "constant": true,
      "inputs": [
        {
          "name": "_owner",
          "type": "address"
        }
      ],
      "name": "balanceOf",
      "outputs": [
        {
          "name": "balance",
          "type": "uint256"
        }
      ],
      "payable": false,
      "stateMutability": "view",
      "type": "function"
    },
    {
      "constant": false,
      "inputs": [
        {
          "name": "_to",
          "type": "address"
        },
        {
          "name": "_value",
          "type": "uint256"
        }
      ],
      "name": "transfer",
      "outputs": [
        {
          "name": "success",
          "type": "bool"
        }
      ],
      "payable": false,
      "stateMutability": "nonpayable",
      "type": "function"
    },
    {
      "constant": false,
      "inputs": [
        {
          "name": "_to",
          "type": "address"
        },
        {
          "name": "_value",
          "type": "uint256"
        },
        {
          "name": "_data",
          "type": "bytes"
        }
      ],
      "name": "transfer",
      "outputs": [
        {
          "name": "success",
          "type": "bool"
        }
      ],
      "payable": false,
      "stateMutability": "nonpayable",
      "type": "function"
    },
    {
      "anonymous": false,
      "inputs": [
        {
          "indexed": true,
          "name": "_from",
          "type": "address"
        },
        {
          "indexed": true,
          "name": "_to",
          "type": "address"
        },
        {
          "indexed": false,
          "name": "_value",
          "type": "uint256"
        },
        {
          "indexed": true,
          "name": "_data",
          "type": "bytes"
        }
      ],
      "name": "Transfer",
      "type": "event"
    },
    {
      "anonymous": false,
      "inputs": [
        {
          "indexed": true,
          "name": "from",
          "type": "address"
        },
        {
          "indexed": true,
          "name": "to",
          "type": "address"
        },
        {
          "indexed": false,
          "name": "value",
          "type": "uint256"
        }
      ],
      "name": "Transfer",
      "type": "event"
    }
  ],
  "bytecode": "0x60606040526109f5806100136000396000f300606060405260043610610062576000357c0100000000000000000000000000000000000000000000000000000000900463ffffffff16806318160ddd1461006757806370a0823114610090578063a9059cbb146100dd578063be45fd6214610137575b600080fd5b341561007257600080fd5b61007a6101d4565b6040518082815260200191505060405180910390f35b341561009b57600080fd5b6100c7600480803573ffffffffffffffffffffffffffffffffffffffff169060200190919050506101da565b6040518082815260200191505060405180910390f35b34156100e857600080fd5b61011d600480803573ffffffffffffffffffffffffffffffffffffffff16906020019091908035906020019091905050610270565b604051808215151515815260200191505060405180910390f35b341561014257600080fd5b6101ba600480803573ffffffffffffffffffffffffffffffffffffffff1690602001909190803590602001909190803590602001908201803590602001908080601f01602080910402602001604051908101604052809392919081815260200183838082843782019150505050505091905050610426565b604051808215151515815260200191505060405180910390f35b60005481565b60008160008173ffffffffffffffffffffffffffffffffffffffff16141580156102315750600073ffffffffffffffffffffffffffffffffffffffff168173ffffffffffffffffffffffffffffffffffffffff1614155b8015610254575060008173ffffffffffffffffffffffffffffffffffffffff1614155b151561025f57600080fd5b610268836105e8565b915050919050565b60008260008173ffffffffffffffffffffffffffffffffffffffff16141580156102c75750600073ffffffffffffffffffffffffffffffffffffffff168173ffffffffffffffffffffffffffffffffffffffff1614155b80156102ea575060008173ffffffffffffffffffffffffffffffffffffffff1614155b15156102f557600080fd5b8260008111151561030557600080fd5b83600160003373ffffffffffffffffffffffffffffffffffffffff1673ffffffffffffffffffffffffffffffffffffffff16815260200190815260200160002054101580156103e35750600160008673ffffffffffffffffffffffffffffffffffffffff1673ffffffffffffffffffffffffffffffffffffffff168152602001908152602001600020546103e185600160008973ffffffffffffffffffffffffffffffffffffffff1673ffffffffffffffffffffffffffffffffffffffff1681526020019081526020016000205461063190919063ffffffff16565b115b15156103ee57600080fd5b61041c858560006040518059106104025750595b9080825280601f01601f1916602001820160405250610426565b9250505092915050565b60008360008173ffffffffffffffffffffffffffffffffffffffff161415801561047d5750600073ffffffffffffffffffffffffffffffffffffffff168173ffffffffffffffffffffffffffffffffffffffff1614155b80156104a0575060008173ffffffffffffffffffffffffffffffffffffffff1614155b15156104ab57600080fd5b836000811115156104bb57600080fd5b84600160003373ffffffffffffffffffffffffffffffffffffffff1673ffffffffffffffffffffffffffffffffffffffff16815260200190815260200160002054101580156105995750600160008773ffffffffffffffffffffffffffffffffffffffff1673ffffffffffffffffffffffffffffffffffffffff1681526020019081526020016000205461059786600160008a73ffffffffffffffffffffffffffffffffffffffff1673ffffffffffffffffffffffffffffffffffffffff1681526020019081526020016000205461063190919063ffffffff16565b115b15156105a457600080fd5b6105ae868661064f565b15156105b957600080fd5b6105c286610825565b156105da576105d333878787610838565b92506105df565b600192505b50509392505050565b6000600160008373ffffffffffffffffffffffffffffffffffffffff1673ffffffffffffffffffffffffffffffffffffffff168152602001908152602001600020549050919050565b600080828401905083811015151561064557fe5b8091505092915050565b60008073ffffffffffffffffffffffffffffffffffffffff168373ffffffffffffffffffffffffffffffffffffffff161415151561068c57600080fd5b6106de82600160003373ffffffffffffffffffffffffffffffffffffffff1673ffffffffffffffffffffffffffffffffffffffff168152602001908152602001600020546109b090919063ffffffff16565b600160003373ffffffffffffffffffffffffffffffffffffffff1673ffffffffffffffffffffffffffffffffffffffff1681526020019081526020016000208190555061077382600160008673ffffffffffffffffffffffffffffffffffffffff1673ffffffffffffffffffffffffffffffffffffffff1681526020019081526020016000205461063190919063ffffffff16565b600160008573ffffffffffffffffffffffffffffffffffffffff1673ffffffffffffffffffffffffffffffffffffffff168152602001908152602001600020819055508273ffffffffffffffffffffffffffffffffffffffff163373ffffffffffffffffffffffffffffffffffffffff167fddf252ad1be2c89b69c2b068fc378daa952ba7f163c4a11628f55a4df523b3ef846040518082815260200191505060405180910390a36001905092915050565b600080823b905060008111915050919050565b6000808490508073ffffffffffffffffffffffffffffffffffffffff16634c123019338887876000604051602001526040518563ffffffff167c0100000000000000000000000000000000000000000000000000000000028152600401808573ffffffffffffffffffffffffffffffffffffffff1673ffffffffffffffffffffffffffffffffffffffff1681526020018473ffffffffffffffffffffffffffffffffffffffff1673ffffffffffffffffffffffffffffffffffffffff16815260200183815260200180602001828103825283818151815260200191508051906020019080838360005b8381101561093c578082015181840152602081019050610921565b50505050905090810190601f1680156109695780820380516001836020036101000a031916815260200191505b5095505050505050602060405180830381600087803b151561098a57600080fd5b6102c65a03f1151561099b57600080fd5b50505060405180519050915050949350505050565b60008282111515156109be57fe5b8183039050929150505600a165627a7a723058205fffb4109fbafecbc02c6f11b058f4d47ce862998cc1bad7f8ea79a0a45fbb2c0029",
  "source": "pragma solidity ^0.4.15;\r\n\r\nimport './Utils.sol';\r\nimport './interface/ERC23Basic.sol';\r\nimport './interface/ERC23Receiver.sol';\r\nimport '../installed_contracts/zeppelin-solidity/contracts/token/BasicToken.sol';\r\n\r\n /**\r\n * @title Basic token ERC23 \r\n * @dev Basic version of StandardToken, with no allowances\r\n *\r\n * created by IAM <DEV> (Elky Bachtiar) \r\n * https://www.iamdeveloper.io\r\n * Changes made base on ERC20 Token Stadard and Solidity version 0.4.13\r\n * https://theethereum.wiki/w/index.php/ERC20_Token_Standard\r\n */\r\ncontract Basic23Token is Utils, ERC23Basic, BasicToken {\r\n  \r\n    /**\r\n    * @dev transfer token for a specified address\r\n    * @param _to The address to transfer to.\r\n    * @param _value The amount to be transferred\r\n    * @param _data is arbitrary data sent with the token transferFrom. Simulates ether tx.data\r\n    * @return bool successful or not\r\n    */\r\n    function transfer(address _to, uint _value, bytes _data) \r\n        validAddress(_to) \r\n        greaterThanZero(_value)\r\n        returns (bool success)\r\n    {\r\n        /// Ensure Sender has enough balance to send amount and ensure the sent _value is greater than 0\r\n        // and Detect balance overflow\r\n        require(balances[msg.sender] >= _value &&\r\n                balances[_to].add(_value) > balances[_to]);\r\n        require(super.transfer(_to, _value));\r\n\r\n        if (isContract(_to)){\r\n          return contractFallback(msg.sender, _to, _value, _data);\r\n        }\r\n        return true;\r\n    }\r\n\r\n    /**\r\n    * @dev transfer token for a specified address\r\n    * @param _to The address to transfer to.\r\n    * @param _value The amount to be transferred.\r\n    */\r\n    function transfer(address _to, uint256 _value) \r\n        validAddress(_to) \r\n        greaterThanZero(_value)\r\n        returns (bool success)\r\n    {\r\n        /// Ensure Sender has enough balance to send amount and ensure the sent _value is greater than 0\r\n        // and Detect balance overflow\r\n        require(balances[msg.sender] >= _value &&\r\n                balances[_to].add(_value) > balances[_to]);\r\n        \r\n        return transfer(_to, _value, new bytes(0));\r\n    }\r\n\r\n    /**\r\n    * @dev Gets the balance of the specified address.\r\n    * @param _owner The address to query the the balance of. \r\n    * @return An uint256 representing the amount owned by the passed address.\r\n    */\r\n    function balanceOf(address _owner) \r\n        validAddress(_owner) \r\n        constant returns (uint256 balance)\r\n    {\r\n        return super.balanceOf(_owner);\r\n    }\r\n\r\n    //function that is called when transaction target is a contract\r\n    function contractFallback(address _origin, address _to, uint _value, bytes _data) internal returns (bool success) {\r\n        ERC23Receiver reciever = ERC23Receiver(_to);\r\n        return reciever.tokenFallback(msg.sender, _origin, _value, _data);\r\n    }\r\n\r\n    //assemble the given address bytecode. If bytecode exists then the _addr is a contract.\r\n    function isContract(address _addr) internal returns (bool is_contract) {\r\n        // retrieve the size of the code on target address, this needs assembly\r\n        uint length;\r\n        assembly { length := extcodesize(_addr) }\r\n        return length > 0;\r\n    }\r\n}\r\n",
  "sourcePath": "C:\\Side\\ori\\installed_contracts\\ERC23\\contracts\\Basic23Token.sol",
  "compiler": {
    "name": "solc",
    "version": "0.4.18+commit.9cf6e910.Emscripten.clang"
  },
  "schemaVersion": "1.0.1",
  "updatedAt": "2018-01-10T12:40:36.573Z"
}