{
  "contractName": "Basic23Token",
  "abi": [
    {
      "constant": true,
      "inputs": [],
      "name": "totalSupply",
      "outputs": [
        {
          "name": "",
          "type": "uint256"
        }
      ],
      "payable": false,
      "stateMutability": "view",
      "type": "function"
    },
    {
      "constant": true,
      "inputs": [
        {
          "name": "_owner",
          "type": "address"
        }
      ],
      "name": "balanceOf",
      "outputs": [
        {
          "name": "balance",
          "type": "uint256"
        }
      ],
      "payable": false,
      "stateMutability": "view",
      "type": "function"
    },
    {
      "constant": false,
      "inputs": [
        {
          "name": "_to",
          "type": "address"
        },
        {
          "name": "_value",
          "type": "uint256"
        }
      ],
      "name": "transfer",
      "outputs": [
        {
          "name": "success",
          "type": "bool"
        }
      ],
      "payable": false,
      "stateMutability": "nonpayable",
      "type": "function"
    },
    {
      "constant": false,
      "inputs": [
        {
          "name": "_to",
          "type": "address"
        },
        {
          "name": "_value",
          "type": "uint256"
        },
        {
          "name": "_data",
          "type": "bytes"
        }
      ],
      "name": "transfer",
      "outputs": [
        {
          "name": "success",
          "type": "bool"
        }
      ],
      "payable": false,
      "stateMutability": "nonpayable",
      "type": "function"
    },
    {
      "anonymous": false,
      "inputs": [
        {
          "indexed": true,
          "name": "_from",
          "type": "address"
        },
        {
          "indexed": true,
          "name": "_to",
          "type": "address"
        },
        {
          "indexed": false,
          "name": "_value",
          "type": "uint256"
        },
        {
          "indexed": true,
          "name": "_data",
          "type": "bytes"
        }
      ],
      "name": "Transfer",
      "type": "event"
    },
    {
      "anonymous": false,
      "inputs": [
        {
          "indexed": true,
          "name": "from",
          "type": "address"
        },
        {
          "indexed": true,
          "name": "to",
          "type": "address"
        },
        {
          "indexed": false,
          "name": "value",
          "type": "uint256"
        }
      ],
      "name": "Transfer",
      "type": "event"
    }
  ],
  "bytecode": "0x6060604052341561000f57600080fd5b6107e98061001e6000396000f300606060405260043610610062576000357c0100000000000000000000000000000000000000000000000000000000900463ffffffff16806318160ddd1461006757806370a0823114610090578063a9059cbb146100dd578063be45fd6214610137575b600080fd5b341561007257600080fd5b61007a6101d4565b6040518082815260200191505060405180910390f35b341561009b57600080fd5b6100c7600480803573ffffffffffffffffffffffffffffffffffffffff169060200190919050506101da565b6040518082815260200191505060405180910390f35b34156100e857600080fd5b61011d600480803573ffffffffffffffffffffffffffffffffffffffff16906020019091908035906020019091905050610270565b604051808215151515815260200191505060405180910390f35b341561014257600080fd5b6101ba600480803573ffffffffffffffffffffffffffffffffffffffff1690602001909190803590602001909190803590602001908201803590602001908080601f0160208091040260200160405190810160405280939291908181526020018383808284378201915050505050509190505061033d565b604051808215151515815260200191505060405180910390f35b60005481565b60008160008173ffffffffffffffffffffffffffffffffffffffff16141580156102315750600073ffffffffffffffffffffffffffffffffffffffff168173ffffffffffffffffffffffffffffffffffffffff1614155b8015610254575060008173ffffffffffffffffffffffffffffffffffffffff1614155b151561025f57600080fd5b61026883610519565b915050919050565b60008260008173ffffffffffffffffffffffffffffffffffffffff16141580156102c75750600073ffffffffffffffffffffffffffffffffffffffff168173ffffffffffffffffffffffffffffffffffffffff1614155b80156102ea575060008173ffffffffffffffffffffffffffffffffffffffff1614155b15156102f557600080fd5b8260008111151561030557600080fd5b610333858560006040518059106103195750595b9080825280601f01601f191660200182016040525061033d565b9250505092915050565b60008360008173ffffffffffffffffffffffffffffffffffffffff16141580156103945750600073ffffffffffffffffffffffffffffffffffffffff168173ffffffffffffffffffffffffffffffffffffffff1614155b80156103b7575060008173ffffffffffffffffffffffffffffffffffffffff1614155b15156103c257600080fd5b836000811115156103d257600080fd5b600073ffffffffffffffffffffffffffffffffffffffff168673ffffffffffffffffffffffffffffffffffffffff161415151561040e57600080fd5b600160003373ffffffffffffffffffffffffffffffffffffffff1673ffffffffffffffffffffffffffffffffffffffff16815260200190815260200160002054851115151561045c57600080fd5b600160008773ffffffffffffffffffffffffffffffffffffffff1673ffffffffffffffffffffffffffffffffffffffff168152602001908152602001600020546104ee86600160008a73ffffffffffffffffffffffffffffffffffffffff1673ffffffffffffffffffffffffffffffffffffffff1681526020019081526020016000205461056290919063ffffffff16565b1115156104fa57600080fd5b6105048686610580565b151561050c57fe5b6001925050509392505050565b6000600160008373ffffffffffffffffffffffffffffffffffffffff1673ffffffffffffffffffffffffffffffffffffffff168152602001908152602001600020549050919050565b600080828401905083811015151561057657fe5b8091505092915050565b60008073ffffffffffffffffffffffffffffffffffffffff168373ffffffffffffffffffffffffffffffffffffffff16141515156105bd57600080fd5b600160003373ffffffffffffffffffffffffffffffffffffffff1673ffffffffffffffffffffffffffffffffffffffff16815260200190815260200160002054821115151561060b57600080fd5b61065d82600160003373ffffffffffffffffffffffffffffffffffffffff1673ffffffffffffffffffffffffffffffffffffffff168152602001908152602001600020546107a490919063ffffffff16565b600160003373ffffffffffffffffffffffffffffffffffffffff1673ffffffffffffffffffffffffffffffffffffffff168152602001908152602001600020819055506106f282600160008673ffffffffffffffffffffffffffffffffffffffff1673ffffffffffffffffffffffffffffffffffffffff1681526020019081526020016000205461056290919063ffffffff16565b600160008573ffffffffffffffffffffffffffffffffffffffff1673ffffffffffffffffffffffffffffffffffffffff168152602001908152602001600020819055508273ffffffffffffffffffffffffffffffffffffffff163373ffffffffffffffffffffffffffffffffffffffff167fddf252ad1be2c89b69c2b068fc378daa952ba7f163c4a11628f55a4df523b3ef846040518082815260200191505060405180910390a36001905092915050565b60008282111515156107b257fe5b8183039050929150505600a165627a7a72305820defd66b90d10addebc916ab7a7893549c828f7cc671aea7d24d15dc6079c38e30029",
  "source": "pragma solidity ^0.4.18;\r\n\r\nimport '../Utils.sol';\r\nimport './interface/ERC23Basic.sol';\r\nimport './interface/ERC23Receiver.sol';\r\nimport '../../installed_contracts/zeppelin-solidity/contracts/token/BasicToken.sol';\r\n\r\n /**\r\n  *\r\n  * @title Basic token ERC23 \r\n  *        derived from OpenZeppelin solidity library\r\n  * @dev Basic version of StandardToken, with no allowances\r\n  *\r\n  * @dev see also: https://github.com/Dexaran/ERC23-tokens\r\n  *                https://github.com/OpenZeppelin/zeppelin-solidity\r\n  *\r\n  * created by IAM <DEV> (Elky Bachtiar) \r\n  * https://www.iamdeveloper.io\r\n  *\r\n  *\r\n  * file: Basic23Token.sol\r\n  * location: ERC23/contracts/token/\r\n  *\r\n */\r\ncontract Basic23Token is Utils, ERC23Basic, BasicToken {\r\n  \r\n    /**\r\n    * @dev transfer token for a specified address\r\n    * @param _to The address to transfer to.\r\n    * @param _value The amount to be transferred\r\n    * @param _data is arbitrary data sent with the token transferFrom. Simulates ether tx.data\r\n    * @return bool successful or not\r\n    */\r\n    function transfer(address _to, uint _value, bytes _data) \r\n        public\r\n        validAddress(_to) \r\n        //notThis(_to)\r\n        greaterThanZero(_value)\r\n        returns (bool success)\r\n    {\r\n        require(_to != address(0));\r\n        require(_value <= balances[msg.sender]);            // Ensure Sender has enough balance to send amount and ensure the sent _value is greater than 0\r\n        require(balances[_to].add(_value) > balances[_to]);  // Detect balance overflow\r\n    \r\n        assert(super.transfer(_to, _value));               //@dev Save transfer\r\n\r\n        // if (isContract(_to)){\r\n        //   return contractFallback(msg.sender, _to, _value, _data);\r\n        // }\r\n        return true;\r\n    }\r\n\r\n    /**\r\n    * @dev transfer token for a specified address\r\n    * @param _to The address to transfer to.\r\n    * @param _value The amount to be transferred.\r\n    */\r\n    function transfer(address _to, uint256 _value) \r\n        public\r\n        validAddress(_to) \r\n        //notThis(_to)\r\n        greaterThanZero(_value)\r\n        returns (bool success)\r\n    {        \r\n        return transfer(_to, _value, new bytes(0));\r\n    }\r\n\r\n    /**\r\n    * @dev Gets the balance of the specified address.\r\n    * @param _owner The address to query the the balance of. \r\n    * @return An uint256 representing the amount owned by the passed address.\r\n    */\r\n    function balanceOf(address _owner) \r\n        public\r\n        validAddress(_owner) \r\n        constant returns (uint256 balance)\r\n    {\r\n        return super.balanceOf(_owner);\r\n    }\r\n\r\n    //function that is called when transaction target is a contract\r\n    function contractFallback(address _origin, address _to, uint _value, bytes _data) internal returns (bool success) {\r\n        ERC23Receiver reciever = ERC23Receiver(_to);\r\n        return reciever.tokenFallback(msg.sender, _origin, _value, _data);\r\n    }\r\n\r\n    //assemble the given address bytecode. If bytecode exists then the _addr is a contract.\r\n    function isContract(address _addr) internal returns (bool is_contract) {\r\n        // retrieve the size of the code on target address, this needs assembly\r\n        uint length;\r\n        assembly { length := extcodesize(_addr) }\r\n        return length > 0;\r\n    }\r\n}\r\n",
  "sourcePath": "C:\\Side\\ori\\installed_contracts\\ERC23\\contracts\\token\\Basic23Token.sol",
  "compiler": {
    "name": "solc",
    "version": "0.4.18+commit.9cf6e910.Emscripten.clang"
  },
  "schemaVersion": "1.0.1",
  "updatedAt": "2018-02-06T10:08:15.599Z"
}