{
  "contractName": "ORPCoinMarket",
  "abi": [
    {
      "constant": false,
      "inputs": [
        {
          "name": "_token",
          "type": "address"
        }
      ],
      "name": "setToken",
      "outputs": [
        {
          "name": "success",
          "type": "bool"
        }
      ],
      "payable": false,
      "stateMutability": "nonpayable",
      "type": "function"
    },
    {
      "constant": false,
      "inputs": [],
      "name": "unpause",
      "outputs": [
        {
          "name": "",
          "type": "bool"
        }
      ],
      "payable": false,
      "stateMutability": "nonpayable",
      "type": "function"
    },
    {
      "constant": true,
      "inputs": [],
      "name": "paused",
      "outputs": [
        {
          "name": "",
          "type": "bool"
        }
      ],
      "payable": false,
      "stateMutability": "view",
      "type": "function"
    },
    {
      "constant": false,
      "inputs": [],
      "name": "pause",
      "outputs": [
        {
          "name": "",
          "type": "address"
        }
      ],
      "payable": false,
      "stateMutability": "nonpayable",
      "type": "function"
    },
    {
      "constant": true,
      "inputs": [
        {
          "name": "newOwner",
          "type": "address"
        }
      ],
      "name": "owner",
      "outputs": [
        {
          "name": "",
          "type": "address"
        }
      ],
      "payable": false,
      "stateMutability": "view",
      "type": "function"
    },
    {
      "anonymous": false,
      "inputs": [],
      "name": "isTokenSet",
      "type": "function",
      "constant": true,
      "outputs": [
        {
          "name": "",
          "type": "bool"
        }
      ],
      "payable": false,
      "stateMutability": "view"
    },
    {
      "anonymous": false,
      "inputs": [],
      "name": "minimumPurchase",
      "type": "function",
      "constant": true,
      "outputs": [
        {
          "name": "",
          "type": "uint256"
        }
      ],
      "payable": false,
      "stateMutability": "view"
    },
    {
      "anonymous": false,
      "inputs": [
        {
          "indexed": true,
          "name": "previousOwner",
          "type": "address"
        },
        {
          "indexed": true,
          "name": "newOwner",
          "type": "address"
        }
      ],
      "name": "devPercentage",
      "type": "function",
      "constant": true,
      "outputs": [
        {
          "name": "",
          "type": "uint256"
        }
      ],
      "payable": false,
      "stateMutability": "view"
    },
    {
      "constant": false,
      "inputs": [
        {
          "name": "beneficiary",
          "type": "address"
        }
      ],
      "name": "buyTokens",
      "outputs": [],
      "payable": true,
      "stateMutability": "payable",
      "type": "function"
    },
    {
      "constant": false,
      "inputs": [
        {
          "name": "newOwner",
          "type": "address"
        }
      ],
      "name": "transferOwnership",
      "outputs": [],
      "payable": false,
      "stateMutability": "nonpayable",
      "type": "function"
    },
    {
      "constant": true,
      "inputs": [],
      "name": "token",
      "outputs": [
        {
          "name": "",
          "type": "address"
        }
      ],
      "payable": false,
      "stateMutability": "view",
      "type": "function"
    },
    {
      "inputs": [
        {
          "name": "_minimumPurchase",
          "type": "uint256"
        },
        {
          "name": "_devPercentage",
          "type": "uint256"
        }
      ],
      "payable": false,
      "stateMutability": "nonpayable",
      "type": "constructor"
    },
    {
      "payable": true,
      "stateMutability": "payable",
      "type": "fallback"
    },
    {
      "anonymous": false,
      "inputs": [],
      "name": "Pause",
      "type": "event"
    },
    {
      "anonymous": false,
      "inputs": [],
      "name": "Unpause",
      "type": "event"
    },
    {
      "anonymous": false,
      "inputs": [
        {
          "indexed": true,
          "name": "previousOwner",
          "type": "address"
        },
        {
          "indexed": true,
          "name": "newOwner",
          "type": "address"
        }
      ],
      "name": "OwnershipTransferred",
      "type": "event"
    }
  ],
  "bytecode": "0x606060405260008060146101000a81548160ff021916908315150217905550341561002957600080fd5b604051604080610b4483398101604052808051906020019091908051906020019091905050336000806101000a81548173ffffffffffffffffffffffffffffffffffffffff021916908373ffffffffffffffffffffffffffffffffffffffff160217905550816002819055508060038190555033600460006101000a81548173ffffffffffffffffffffffffffffffffffffffff021916908373ffffffffffffffffffffffffffffffffffffffff1602179055506000600460146101000a81548160ff0219169083151502179055505050610a3b806101096000396000f3006060604052600436106100af576000357c0100000000000000000000000000000000000000000000000000000000900463ffffffff168063144fa6d7146100ba5780633f4ba83a1461010b5780635c975abb146101205780638456cb591461014d5780638da5cb5b146101625780639ee7138c146101b7578063aa2de6c3146101e4578063c3a438241461020d578063ec8ac4d814610236578063f2fde38b14610264578063fc0c546a1461029d575b6100b8336102f2565b005b34156100c557600080fd5b6100f1600480803573ffffffffffffffffffffffffffffffffffffffff1690602001909190505061053a565b604051808215151515815260200191505060405180910390f35b341561011657600080fd5b61011e610681565b005b341561012b57600080fd5b61013361073f565b604051808215151515815260200191505060405180910390f35b341561015857600080fd5b610160610752565b005b341561016d57600080fd5b610175610812565b604051808273ffffffffffffffffffffffffffffffffffffffff1673ffffffffffffffffffffffffffffffffffffffff16815260200191505060405180910390f35b34156101c257600080fd5b6101ca610837565b604051808215151515815260200191505060405180910390f35b34156101ef57600080fd5b6101f761084a565b6040518082815260200191505060405180910390f35b341561021857600080fd5b610220610850565b6040518082815260200191505060405180910390f35b610262600480803573ffffffffffffffffffffffffffffffffffffffff169060200190919050506102f2565b005b341561026f57600080fd5b61029b600480803573ffffffffffffffffffffffffffffffffffffffff16906020019091905050610856565b005b34156102a857600080fd5b6102b06109ab565b604051808273ffffffffffffffffffffffffffffffffffffffff1673ffffffffffffffffffffffffffffffffffffffff16815260200191505060405180910390f35b60008060008373ffffffffffffffffffffffffffffffffffffffff161415151561031b57600080fd5b6103236109d1565b151561032e57600080fd5b34915061033d826003546109f4565b9050600160009054906101000a900473ffffffffffffffffffffffffffffffffffffffff1673ffffffffffffffffffffffffffffffffffffffff166340c10f19600460009054906101000a900473ffffffffffffffffffffffffffffffffffffffff16836000604051602001526040518363ffffffff167c0100000000000000000000000000000000000000000000000000000000028152600401808373ffffffffffffffffffffffffffffffffffffffff1673ffffffffffffffffffffffffffffffffffffffff16815260200182815260200192505050602060405180830381600087803b151561042e57600080fd5b6102c65a03f1151561043f57600080fd5b5050506040518051905050600160009054906101000a900473ffffffffffffffffffffffffffffffffffffffff1673ffffffffffffffffffffffffffffffffffffffff166340c10f19848385036000604051602001526040518363ffffffff167c0100000000000000000000000000000000000000000000000000000000028152600401808373ffffffffffffffffffffffffffffffffffffffff1673ffffffffffffffffffffffffffffffffffffffff16815260200182815260200192505050602060405180830381600087803b151561051957600080fd5b6102c65a03f1151561052a57600080fd5b5050506040518051905050505050565b60008160008173ffffffffffffffffffffffffffffffffffffffff16141580156105915750600073ffffffffffffffffffffffffffffffffffffffff168173ffffffffffffffffffffffffffffffffffffffff1614155b80156105b4575060008173ffffffffffffffffffffffffffffffffffffffff1614155b15156105bf57600080fd5b6000809054906101000a900473ffffffffffffffffffffffffffffffffffffffff1673ffffffffffffffffffffffffffffffffffffffff163373ffffffffffffffffffffffffffffffffffffffff1614151561061a57600080fd5b600460149054906101000a900460ff1615151561063657600080fd5b82600160006101000a81548173ffffffffffffffffffffffffffffffffffffffff021916908373ffffffffffffffffffffffffffffffffffffffff1602179055506001915050919050565b6000809054906101000a900473ffffffffffffffffffffffffffffffffffffffff1673ffffffffffffffffffffffffffffffffffffffff163373ffffffffffffffffffffffffffffffffffffffff161415156106dc57600080fd5b600060149054906101000a900460ff1615156106f757600080fd5b60008060146101000a81548160ff0219169083151502179055507f7805862f689e2f13df9f062ff482ad3ad112aca9e0847911ed832e158c525b3360405160405180910390a1565b600060149054906101000a900460ff1681565b6000809054906101000a900473ffffffffffffffffffffffffffffffffffffffff1673ffffffffffffffffffffffffffffffffffffffff163373ffffffffffffffffffffffffffffffffffffffff161415156107ad57600080fd5b600060149054906101000a900460ff161515156107c957600080fd5b6001600060146101000a81548160ff0219169083151502179055507f6985a02210a168e66602d3235cb6db0e70f92b3ba4d376a33c0f3d9434bff62560405160405180910390a1565b6000809054906101000a900473ffffffffffffffffffffffffffffffffffffffff1681565b600460149054906101000a900460ff1681565b60025481565b60035481565b6000809054906101000a900473ffffffffffffffffffffffffffffffffffffffff1673ffffffffffffffffffffffffffffffffffffffff163373ffffffffffffffffffffffffffffffffffffffff161415156108b157600080fd5b600073ffffffffffffffffffffffffffffffffffffffff168173ffffffffffffffffffffffffffffffffffffffff16141515156108ed57600080fd5b8073ffffffffffffffffffffffffffffffffffffffff166000809054906101000a900473ffffffffffffffffffffffffffffffffffffffff1673ffffffffffffffffffffffffffffffffffffffff167f8be0079c531659141344cd1fd0a4f28419497f9722a3daafe3b4186f6b6457e060405160405180910390a3806000806101000a81548173ffffffffffffffffffffffffffffffffffffffff021916908373ffffffffffffffffffffffffffffffffffffffff16021790555050565b600160009054906101000a900473ffffffffffffffffffffffffffffffffffffffff1681565b6000806000803414159150600254341190508180156109ed5750805b9250505090565b6000808284811515610a0257fe5b04905080915050929150505600a165627a7a723058204c77dbacda0cf5f8feb8833ca33769dc55a475b1d21fb08999ea3502481e45560029",
  "source": "pragma solidity ^0.4.18;\r\n\r\nimport './ORPCoin.sol';\r\nimport '../installed_contracts/ERC23/contracts/Utils.sol';\r\nimport '../installed_contracts/ERC23/installed_contracts/zeppelin-solidity/contracts/ownership/Ownable.sol';\r\nimport '../installed_contracts/ERC23/installed_contracts/zeppelin-solidity/contracts/lifecycle/Pausable.sol';\r\nimport '../installed_contracts/ERC23/installed_contracts/zeppelin-solidity/contracts/math/SafeMath.sol';\r\n\r\ncontract ORPCoinMarket is Ownable, Utils, Pausable {\r\n    using SafeMath for uint256;\r\n\r\n    ORPCoin public token;\r\n    uint256 public minimumPurchase;\r\n    uint256 public devPercentage;\r\n    address private devWallet;\r\n    bool public isTokenSet;\r\n\r\n    function ORPCoinMarket(uint256 _minimumPurchase, uint256 _devPercentage) {\r\n        minimumPurchase = _minimumPurchase;\r\n        devPercentage = _devPercentage;\r\n        devWallet = msg.sender;\r\n        isTokenSet = false;\r\n    }\r\n\r\n    function setToken(address _token) \r\n        public \r\n        validAddress(_token)\r\n        onlyOwner\r\n        returns (bool success)\r\n    {\r\n        require(!isTokenSet);\r\n        token = ORPCoin(_token);\r\n        return true;\r\n    }\r\n    \r\n    function() payable {\r\n        buyTokens(msg.sender);\r\n    }\r\n\r\n    function buyTokens (address beneficiary) payable {\r\n        require(beneficiary != 0x0);\r\n        require(validPurchase());\r\n\r\n        uint256 weiAmount = msg.value;\r\n        uint256 devPortion = SafeMath.div(weiAmount,devPercentage);\r\n        token.mint(devWallet,devPortion);\r\n        token.mint(beneficiary,weiAmount - devPortion);\r\n    }\r\n\r\n    function validPurchase() internal constant returns (bool) {\r\n        bool nonZeroPurchase = msg.value != 0;\r\n        bool moreThanMinimumPurchase = msg.value > minimumPurchase;\r\n\r\n        return nonZeroPurchase && moreThanMinimumPurchase;\r\n    }\r\n}",
  "sourcePath": "C:\\Side\\ori\\contracts\\ORPCoinMarket.sol",
  "compiler": {
    "name": "solc",
    "version": "0.4.18+commit.9cf6e910.Emscripten.clang"
  },
  "schemaVersion": "1.0.1",
  "updatedAt": "2018-01-10T12:41:06.049Z"
}