{
  "contractName": "ORPCoinMarket",
  "abi": [
    {
      "constant": false,
      "inputs": [
        {
          "name": "_token",
          "type": "address"
        }
      ],
      "name": "setToken",
      "outputs": [
        {
          "name": "success",
          "type": "bool"
        }
      ],
      "payable": false,
      "stateMutability": "nonpayable",
      "type": "function"
    },
    {
      "constant": false,
      "inputs": [],
      "name": "unpause",
      "outputs": [],
      "payable": false,
      "stateMutability": "nonpayable",
      "type": "function"
    },
    {
      "constant": true,
      "inputs": [],
      "name": "paused",
      "outputs": [
        {
          "name": "",
          "type": "bool"
        }
      ],
      "payable": false,
      "stateMutability": "view",
      "type": "function"
    },
    {
      "constant": false,
      "inputs": [],
      "name": "pause",
      "outputs": [],
      "payable": false,
      "stateMutability": "nonpayable",
      "type": "function"
    },
    {
      "constant": true,
      "inputs": [],
      "name": "owner",
      "outputs": [
        {
          "name": "",
          "type": "address"
        }
      ],
      "payable": false,
      "stateMutability": "view",
      "type": "function"
    },
    {
      "constant": true,
      "inputs": [],
      "name": "isTokenSet",
      "outputs": [
        {
          "name": "",
          "type": "bool"
        }
      ],
      "payable": false,
      "stateMutability": "view",
      "type": "function"
    },
    {
      "constant": true,
      "inputs": [],
      "name": "minimumPurchase",
      "outputs": [
        {
          "name": "",
          "type": "uint256"
        }
      ],
      "payable": false,
      "stateMutability": "view",
      "type": "function"
    },
    {
      "constant": true,
      "inputs": [],
      "name": "devPercentage",
      "outputs": [
        {
          "name": "",
          "type": "uint256"
        }
      ],
      "payable": false,
      "stateMutability": "view",
      "type": "function"
    },
    {
      "constant": false,
      "inputs": [],
      "name": "withdrawToken",
      "outputs": [],
      "payable": false,
      "stateMutability": "nonpayable",
      "type": "function"
    },
    {
      "constant": false,
      "inputs": [
        {
          "name": "newOwner",
          "type": "address"
        }
      ],
      "name": "transferOwnership",
      "outputs": [],
      "payable": false,
      "stateMutability": "nonpayable",
      "type": "function"
    },
    {
      "constant": true,
      "inputs": [
        {
          "name": "a",
          "type": "uint256"
        },
        {
          "name": "b",
          "type": "uint256"
        }
      ],
      "name": "token",
      "outputs": [
        {
          "name": "",
          "type": "address"
        }
      ],
      "payable": false,
      "stateMutability": "view",
      "type": "function"
    },
    {
      "inputs": [
        {
          "name": "_minimumPurchase",
          "type": "uint256"
        },
        {
          "name": "_devPercentage",
          "type": "uint256"
        }
      ],
      "payable": false,
      "stateMutability": "nonpayable",
      "type": "constructor",
      "constant": true,
      "name": "token",
      "outputs": [
        {
          "name": "",
          "type": "address"
        }
      ]
    },
    {
      "payable": true,
      "stateMutability": "payable",
      "type": "fallback",
      "inputs": [
        {
          "name": "_minimumPurchase",
          "type": "uint256"
        },
        {
          "name": "_devPercentage",
          "type": "uint256"
        }
      ]
    },
    {
      "anonymous": false,
      "inputs": [
        {
          "indexed": false,
          "name": "_weiAmount",
          "type": "uint256"
        },
        {
          "indexed": false,
          "name": "_devPortion",
          "type": "uint256"
        },
        {
          "indexed": false,
          "name": "_buyerPortion",
          "type": "uint256"
        },
        {
          "indexed": false,
          "name": "_buyer",
          "type": "address"
        }
      ],
      "name": "SomeoneBuys",
      "type": "event",
      "payable": true,
      "stateMutability": "payable"
    },
    {
      "anonymous": false,
      "inputs": [
        {
          "indexed": false,
          "name": "_weiAmount",
          "type": "uint256"
        },
        {
          "indexed": false,
          "name": "_devPortion",
          "type": "uint256"
        },
        {
          "indexed": false,
          "name": "_buyerPortion",
          "type": "uint256"
        },
        {
          "indexed": false,
          "name": "_buyer",
          "type": "address"
        }
      ],
      "name": "Pause",
      "type": "event"
    },
    {
      "anonymous": false,
      "inputs": [],
      "name": "Unpause",
      "type": "event"
    },
    {
      "anonymous": false,
      "inputs": [
        {
          "indexed": true,
          "name": "previousOwner",
          "type": "address"
        },
        {
          "indexed": true,
          "name": "newOwner",
          "type": "address"
        }
      ],
      "name": "OwnershipTransferred",
      "type": "event"
    },
    {
      "anonymous": false,
      "inputs": [
        {
          "indexed": true,
          "name": "previousOwner",
          "type": "address"
        },
        {
          "indexed": true,
          "name": "newOwner",
          "type": "address"
        }
      ],
      "name": "OwnershipTransferred",
      "type": "event"
    }
  ],
  "bytecode": "0x606060405260008060146101000a81548160ff021916908315150217905550341561002957600080fd5b604051604080610dab83398101604052808051906020019091908051906020019091905050336000806101000a81548173ffffffffffffffffffffffffffffffffffffffff021916908373ffffffffffffffffffffffffffffffffffffffff160217905550816002819055508060038190555033600460006101000a81548173ffffffffffffffffffffffffffffffffffffffff021916908373ffffffffffffffffffffffffffffffffffffffff1602179055506000600460146101000a81548160ff0219169083151502179055505050610ca2806101096000396000f3006060604052600436106100af576000357c0100000000000000000000000000000000000000000000000000000000900463ffffffff168063144fa6d71461034d5780633f4ba83a1461039e5780635c975abb146103b35780638456cb59146103e05780638da5cb5b146103f55780639ee7138c1461044a578063aa2de6c314610477578063c3a43824146104a0578063ca628c78146104c9578063f2fde38b146104de578063fc0c546a14610517575b6000806100ba61056c565b15156100c557600080fd5b3491506100d48260035461058f565b90507f87c77668ad0cf775a353f10a07407c81137db5c71ac699b1a0ac966c429ee3fc828283850333604051808581526020018481526020018381526020018273ffffffffffffffffffffffffffffffffffffffff1673ffffffffffffffffffffffffffffffffffffffff16815260200194505050505060405180910390a1600160009054906101000a900473ffffffffffffffffffffffffffffffffffffffff1673ffffffffffffffffffffffffffffffffffffffff166340c10f19600460009054906101000a900473ffffffffffffffffffffffffffffffffffffffff16836000604051602001526040518363ffffffff167c0100000000000000000000000000000000000000000000000000000000028152600401808373ffffffffffffffffffffffffffffffffffffffff1673ffffffffffffffffffffffffffffffffffffffff16815260200182815260200192505050602060405180830381600087803b151561024257600080fd5b6102c65a03f1151561025357600080fd5b5050506040518051905050600160009054906101000a900473ffffffffffffffffffffffffffffffffffffffff1673ffffffffffffffffffffffffffffffffffffffff166340c10f19338385036000604051602001526040518363ffffffff167c0100000000000000000000000000000000000000000000000000000000028152600401808373ffffffffffffffffffffffffffffffffffffffff1673ffffffffffffffffffffffffffffffffffffffff16815260200182815260200192505050602060405180830381600087803b151561032d57600080fd5b6102c65a03f1151561033e57600080fd5b50505060405180519050505050005b341561035857600080fd5b610384600480803573ffffffffffffffffffffffffffffffffffffffff169060200190919050506105aa565b604051808215151515815260200191505060405180910390f35b34156103a957600080fd5b6103b161070c565b005b34156103be57600080fd5b6103c66107ca565b604051808215151515815260200191505060405180910390f35b34156103eb57600080fd5b6103f36107dd565b005b341561040057600080fd5b61040861089d565b604051808273ffffffffffffffffffffffffffffffffffffffff1673ffffffffffffffffffffffffffffffffffffffff16815260200191505060405180910390f35b341561045557600080fd5b61045d6108c2565b604051808215151515815260200191505060405180910390f35b341561048257600080fd5b61048a6108d5565b6040518082815260200191505060405180910390f35b34156104ab57600080fd5b6104b36108db565b6040518082815260200191505060405180910390f35b34156104d457600080fd5b6104dc6108e1565b005b34156104e957600080fd5b610515600480803573ffffffffffffffffffffffffffffffffffffffff16906020019091905050610afb565b005b341561052257600080fd5b61052a610c50565b604051808273ffffffffffffffffffffffffffffffffffffffff1673ffffffffffffffffffffffffffffffffffffffff16815260200191505060405180910390f35b6000806000803414159150600254341190508180156105885750805b9250505090565b600080828481151561059d57fe5b0490508091505092915050565b60008160008173ffffffffffffffffffffffffffffffffffffffff16141580156106015750600073ffffffffffffffffffffffffffffffffffffffff168173ffffffffffffffffffffffffffffffffffffffff1614155b8015610624575060008173ffffffffffffffffffffffffffffffffffffffff1614155b151561062f57600080fd5b6000809054906101000a900473ffffffffffffffffffffffffffffffffffffffff1673ffffffffffffffffffffffffffffffffffffffff163373ffffffffffffffffffffffffffffffffffffffff1614151561068a57600080fd5b600460149054906101000a900460ff161515156106a657600080fd5b82600160006101000a81548173ffffffffffffffffffffffffffffffffffffffff021916908373ffffffffffffffffffffffffffffffffffffffff1602179055506001600460146101000a81548160ff0219169083151502179055506001915050919050565b6000809054906101000a900473ffffffffffffffffffffffffffffffffffffffff1673ffffffffffffffffffffffffffffffffffffffff163373ffffffffffffffffffffffffffffffffffffffff1614151561076757600080fd5b600060149054906101000a900460ff16151561078257600080fd5b60008060146101000a81548160ff0219169083151502179055507f7805862f689e2f13df9f062ff482ad3ad112aca9e0847911ed832e158c525b3360405160405180910390a1565b600060149054906101000a900460ff1681565b6000809054906101000a900473ffffffffffffffffffffffffffffffffffffffff1673ffffffffffffffffffffffffffffffffffffffff163373ffffffffffffffffffffffffffffffffffffffff1614151561083857600080fd5b600060149054906101000a900460ff1615151561085457600080fd5b6001600060146101000a81548160ff0219169083151502179055507f6985a02210a168e66602d3235cb6db0e70f92b3ba4d376a33c0f3d9434bff62560405160405180910390a1565b6000809054906101000a900473ffffffffffffffffffffffffffffffffffffffff1681565b600460149054906101000a900460ff1681565b60025481565b60035481565b6000806000600160009054906101000a900473ffffffffffffffffffffffffffffffffffffffff1673ffffffffffffffffffffffffffffffffffffffff166370a08231336000604051602001526040518263ffffffff167c0100000000000000000000000000000000000000000000000000000000028152600401808273ffffffffffffffffffffffffffffffffffffffff1673ffffffffffffffffffffffffffffffffffffffff168152602001915050602060405180830381600087803b15156109ab57600080fd5b6102c65a03f115156109bc57600080fd5b505050604051805190501115156109d257600080fd5b339150600160009054906101000a900473ffffffffffffffffffffffffffffffffffffffff1673ffffffffffffffffffffffffffffffffffffffff166370a08231836000604051602001526040518263ffffffff167c0100000000000000000000000000000000000000000000000000000000028152600401808273ffffffffffffffffffffffffffffffffffffffff1673ffffffffffffffffffffffffffffffffffffffff168152602001915050602060405180830381600087803b1515610a9a57600080fd5b6102c65a03f11515610aab57600080fd5b5050506040518051905090508173ffffffffffffffffffffffffffffffffffffffff166108fc829081150290604051600060405180830381858888f193505050501515610af757600080fd5b5050565b6000809054906101000a900473ffffffffffffffffffffffffffffffffffffffff1673ffffffffffffffffffffffffffffffffffffffff163373ffffffffffffffffffffffffffffffffffffffff16141515610b5657600080fd5b600073ffffffffffffffffffffffffffffffffffffffff168173ffffffffffffffffffffffffffffffffffffffff1614151515610b9257600080fd5b8073ffffffffffffffffffffffffffffffffffffffff166000809054906101000a900473ffffffffffffffffffffffffffffffffffffffff1673ffffffffffffffffffffffffffffffffffffffff167f8be0079c531659141344cd1fd0a4f28419497f9722a3daafe3b4186f6b6457e060405160405180910390a3806000806101000a81548173ffffffffffffffffffffffffffffffffffffffff021916908373ffffffffffffffffffffffffffffffffffffffff16021790555050565b600160009054906101000a900473ffffffffffffffffffffffffffffffffffffffff16815600a165627a7a72305820a6ba2c8b54f17ea34b982beb30b9196e067833045f62e31f66566634798f89c60029",
  "source": "pragma solidity ^0.4.18;\r\n\r\nimport './ORPCoin.sol';\r\nimport '../installed_contracts/ERC23/contracts/Utils.sol';\r\nimport '../installed_contracts/ERC23/installed_contracts/zeppelin-solidity/contracts/ownership/Ownable.sol';\r\nimport '../installed_contracts/ERC23/installed_contracts/zeppelin-solidity/contracts/lifecycle/Pausable.sol';\r\nimport '../installed_contracts/ERC23/installed_contracts/zeppelin-solidity/contracts/math/SafeMath.sol';\r\n\r\ncontract ORPCoinMarket is Ownable, Utils, Pausable {\r\n    using SafeMath for uint256;\r\n\r\n    ORPCoin public token;\r\n    uint256 public minimumPurchase;\r\n    uint256 public devPercentage;\r\n    address private devWallet;\r\n    bool public isTokenSet;\r\n    event SomeoneBuys(uint256 _weiAmount, uint256 _devPortion, uint256 _buyerPortion, address _buyer);\r\n\r\n    function ORPCoinMarket(uint256 _minimumPurchase, uint256 _devPercentage) {\r\n        minimumPurchase = _minimumPurchase;\r\n        devPercentage = _devPercentage;\r\n        devWallet = msg.sender;\r\n        isTokenSet = false;\r\n    }\r\n\r\n    function setToken(address _token) \r\n        public \r\n        validAddress(_token)\r\n        onlyOwner\r\n        returns (bool success)\r\n    {\r\n        require(!isTokenSet);\r\n        token = ORPCoin(_token);\r\n        isTokenSet = true;\r\n        return true;\r\n    }\r\n    \r\n    function() public payable {\r\n        require(validPurchase());\r\n\r\n        uint256 weiAmount = msg.value;\r\n        uint256 devPortion = SafeMath.div(weiAmount,devPercentage);\r\n\r\n        SomeoneBuys(weiAmount, devPortion, weiAmount - devPortion, msg.sender);\r\n        token.mint(devWallet,devPortion);\r\n        token.mint(msg.sender,weiAmount - devPortion);\r\n    }\r\n\r\n    function validPurchase() internal constant returns (bool) {\r\n        bool nonZeroPurchase = msg.value != 0;\r\n        bool moreThanMinimumPurchase = msg.value > minimumPurchase;\r\n\r\n        return nonZeroPurchase && moreThanMinimumPurchase;\r\n    }\r\n\r\n    function withdrawToken() public {\r\n        require(token.balanceOf(msg.sender) > 0);\r\n        \r\n        address beneficiary = msg.sender;\r\n        uint256 amount = token.balanceOf(beneficiary);\r\n        beneficiary.transfer(amount);\r\n    }\r\n}",
  "sourcePath": "C:\\Side\\ori\\contracts\\ORPCoinMarket.sol",
  "compiler": {
    "name": "solc",
    "version": "0.4.18+commit.9cf6e910.Emscripten.clang"
  },
  "schemaVersion": "1.0.1",
  "updatedAt": "2018-01-11T18:20:08.812Z"
}