{
  "contractName": "Roulette",
  "abi": [
    {
      "constant": false,
      "inputs": [
        {
          "name": "_token",
          "type": "address"
        }
      ],
      "name": "setToken",
      "outputs": [],
      "payable": false,
      "stateMutability": "nonpayable",
      "type": "function"
    },
    {
      "constant": true,
      "inputs": [],
      "name": "maxParticipant",
      "outputs": [
        {
          "name": "",
          "type": "uint256"
        }
      ],
      "payable": false,
      "stateMutability": "view",
      "type": "function"
    },
    {
      "constant": false,
      "inputs": [],
      "name": "withdraw",
      "outputs": [],
      "payable": false,
      "stateMutability": "nonpayable",
      "type": "function"
    },
    {
      "constant": false,
      "inputs": [],
      "name": "clear",
      "outputs": [],
      "payable": false,
      "stateMutability": "nonpayable",
      "type": "function"
    },
    {
      "constant": true,
      "inputs": [],
      "name": "owner",
      "outputs": [
        {
          "name": "",
          "type": "address"
        }
      ],
      "payable": false,
      "stateMutability": "view",
      "type": "function"
    },
    {
      "constant": false,
      "inputs": [],
      "name": "join",
      "outputs": [],
      "payable": false,
      "stateMutability": "nonpayable",
      "type": "function"
    },
    {
      "constant": false,
      "inputs": [],
      "name": "setWinner",
      "outputs": [],
      "payable": false,
      "stateMutability": "nonpayable",
      "type": "function"
    },
    {
      "constant": false,
      "inputs": [
        {
          "name": "newOwner",
          "type": "address"
        }
      ],
      "name": "transferOwnership",
      "outputs": [],
      "payable": false,
      "stateMutability": "nonpayable",
      "type": "function"
    },
    {
      "constant": true,
      "inputs": [],
      "name": "currentStake",
      "outputs": [
        {
          "name": "",
          "type": "uint256"
        }
      ],
      "payable": false,
      "stateMutability": "view",
      "type": "function"
    },
    {
      "inputs": [
        {
          "name": "_maxParticipant",
          "type": "uint256"
        }
      ],
      "payable": false,
      "stateMutability": "nonpayable",
      "type": "constructor"
    },
    {
      "anonymous": false,
      "inputs": [
        {
          "indexed": true,
          "name": "previousOwner",
          "type": "address"
        },
        {
          "indexed": true,
          "name": "newOwner",
          "type": "address"
        }
      ],
      "name": "OwnershipTransferred",
      "type": "event"
    }
  ],
  "bytecode": "0x60606040526000600355341561001457600080fd5b604051602080610a4183398101604052808051906020019091905050336000806101000a81548173ffffffffffffffffffffffffffffffffffffffff021916908373ffffffffffffffffffffffffffffffffffffffff1602179055508060018190555060006003819055506127106004819055506000600660146101000a81548160ff0219169083151502179055506000600660156101000a81548160ff02191690831515021790555050610973806100ce6000396000f300606060405260043610610099576000357c0100000000000000000000000000000000000000000000000000000000900463ffffffff168063144fa6d71461009e5780631e4f2479146100d75780633ccfd60b1461010057806352efea6e146101155780638da5cb5b1461012a578063b688a3631461017f578063ed05084e14610194578063f2fde38b146101a9578063fdeaacd6146101e2575b600080fd5b34156100a957600080fd5b6100d5600480803573ffffffffffffffffffffffffffffffffffffffff1690602001909190505061020b565b005b34156100e257600080fd5b6100ea6102e1565b6040518082815260200191505060405180910390f35b341561010b57600080fd5b6101136102e7565b005b341561012057600080fd5b610128610469565b005b341561013557600080fd5b61013d610473565b604051808273ffffffffffffffffffffffffffffffffffffffff1673ffffffffffffffffffffffffffffffffffffffff16815260200191505060405180910390f35b341561018a57600080fd5b610192610498565b005b341561019f57600080fd5b6101a7610688565b005b34156101b457600080fd5b6101e0600480803573ffffffffffffffffffffffffffffffffffffffff1690602001909190505061073e565b005b34156101ed57600080fd5b6101f5610893565b6040518082815260200191505060405180910390f35b6000809054906101000a900473ffffffffffffffffffffffffffffffffffffffff1673ffffffffffffffffffffffffffffffffffffffff163373ffffffffffffffffffffffffffffffffffffffff1614151561026657600080fd5b600660149054906101000a900460ff1615151561028257600080fd5b80600660006101000a81548173ffffffffffffffffffffffffffffffffffffffff021916908373ffffffffffffffffffffffffffffffffffffffff1602179055506001600660146101000a81548160ff02191690831515021790555050565b60015481565b6000600560003373ffffffffffffffffffffffffffffffffffffffff1673ffffffffffffffffffffffffffffffffffffffff1681526020019081526020016000205411151561033557600080fd5b600660009054906101000a900473ffffffffffffffffffffffffffffffffffffffff1673ffffffffffffffffffffffffffffffffffffffff1663a9059cbb33600560003373ffffffffffffffffffffffffffffffffffffffff1673ffffffffffffffffffffffffffffffffffffffff168152602001908152602001600020546000604051602001526040518363ffffffff167c0100000000000000000000000000000000000000000000000000000000028152600401808373ffffffffffffffffffffffffffffffffffffffff1673ffffffffffffffffffffffffffffffffffffffff16815260200182815260200192505050602060405180830381600087803b151561044157600080fd5b6102c65a03f1151561045257600080fd5b50505060405180519050151561046757600080fd5b565b6000600381905550565b6000809054906101000a900473ffffffffffffffffffffffffffffffffffffffff1681565b600660159054906101000a900460ff16156104ba576104b5610469565b610686565b600960035410156106855760028054905060035414156104ee5760016002818180549050019150816104ec91906108f6565b505b600660009054906101000a900473ffffffffffffffffffffffffffffffffffffffff1673ffffffffffffffffffffffffffffffffffffffff166323b872dd33306004546000604051602001526040518463ffffffff167c0100000000000000000000000000000000000000000000000000000000028152600401808473ffffffffffffffffffffffffffffffffffffffff1673ffffffffffffffffffffffffffffffffffffffff1681526020018373ffffffffffffffffffffffffffffffffffffffff1673ffffffffffffffffffffffffffffffffffffffff1681526020018281526020019350505050602060405180830381600087803b15156105f157600080fd5b6102c65a03f1151561060257600080fd5b50505060405180519050151561061757600080fd5b33600260035481548110151561062957fe5b906000526020600020900160006101000a81548173ffffffffffffffffffffffffffffffffffffffff021916908373ffffffffffffffffffffffffffffffffffffffff1602179055506003600081548092919060010191905055505b5b565b6000806106976000600a610899565b91506002828154811015156106a857fe5b906000526020600020900160009054906101000a900473ffffffffffffffffffffffffffffffffffffffff169050600454600a02600560008373ffffffffffffffffffffffffffffffffffffffff1673ffffffffffffffffffffffffffffffffffffffff168152602001908152602001600020819055506001600660156101000a81548160ff0219169083151502179055505050565b6000809054906101000a900473ffffffffffffffffffffffffffffffffffffffff1673ffffffffffffffffffffffffffffffffffffffff163373ffffffffffffffffffffffffffffffffffffffff1614151561079957600080fd5b600073ffffffffffffffffffffffffffffffffffffffff168173ffffffffffffffffffffffffffffffffffffffff16141515156107d557600080fd5b8073ffffffffffffffffffffffffffffffffffffffff166000809054906101000a900473ffffffffffffffffffffffffffffffffffffffff1673ffffffffffffffffffffffffffffffffffffffff167f8be0079c531659141344cd1fd0a4f28419497f9722a3daafe3b4186f6b6457e060405160405180910390a3806000806101000a81548173ffffffffffffffffffffffffffffffffffffffff021916908373ffffffffffffffffffffffffffffffffffffffff16021790555050565b60045481565b60008060008060014303925082406001900491507f028f5c28f5c28f5c28f5c28f5c28f5c28f5c28f5c28f5c28f5c28f5c28f5c28f90506001600a82848115156108df57fe5b048115156108e957fe5b0401935050505092915050565b81548183558181151161091d5781836000526020600020918201910161091c9190610922565b5b505050565b61094491905b80821115610940576000816000905550600101610928565b5090565b905600a165627a7a723058201cb0ad8b4acf5bdcf562a500649ed18eed7cd14c132586be9991388deee762520029",
  "source": "pragma solidity ^0.4.18;\r\n\r\nimport './ORPCoin.sol';\r\nimport '../installed_contracts/ERC23/contracts/Utils.sol';\r\nimport '../installed_contracts/ERC23/installed_contracts/zeppelin-solidity/contracts/ownership/Ownable.sol';\r\nimport '../installed_contracts/ERC23/installed_contracts/zeppelin-solidity/contracts/math/SafeMath.sol';\r\n\r\ncontract Roulette is Ownable, Utils {\r\n    //mapping(uint => mapping(address => uint)) rolls;\r\n    \r\n    uint public maxParticipant;\r\n    address[] participants;\r\n    uint totalParticipants = 0;\r\n    uint public currentStake;\r\n    mapping(address => uint) balanceOfWinners;\r\n\r\n    ORPCoin token;\r\n    bool isTokenSet;\r\n    bool isWinnerSelected;\r\n\r\n    function Roulette(uint _maxParticipant) {\r\n        maxParticipant = _maxParticipant;\r\n        totalParticipants = 0;\r\n        currentStake = 10000;\r\n        isTokenSet = false;\r\n        isWinnerSelected = false;\r\n    }\r\n\r\n    function setToken(address _token) public onlyOwner {\r\n        require(!isTokenSet);\r\n        token = ORPCoin(_token);\r\n        isTokenSet = true;\r\n    }\r\n\r\n    function join() public {\r\n        if(isWinnerSelected) {\r\n            clear();\r\n        } else {\r\n            if(totalParticipants < 9) {\r\n                if(totalParticipants == participants.length) {\r\n                participants.length += 1;\r\n            }\r\n                if (!token.transferFrom(msg.sender, this, currentStake)) throw;\r\n                participants[totalParticipants] = msg.sender;\r\n                totalParticipants++;\r\n            }\r\n        }\r\n    }\r\n\r\n    function clear() {\r\n        totalParticipants = 0;\r\n    }\r\n\r\n    function setWinner() {\r\n        uint selected = rand(0,10);\r\n        address winner = participants[selected];\r\n        balanceOfWinners[winner] = 10 * currentStake;\r\n        isWinnerSelected = true;\r\n    }\r\n\r\n    function withdraw() {\r\n        require(balanceOfWinners[msg.sender] > 0);\r\n        if (!token.transfer(msg.sender, balanceOfWinners[msg.sender])) throw;\r\n    }\r\n\r\n    function rand(uint min, uint max) private constant returns (uint256) {\r\n        uint256 lastBlockNumber = block.number - 1;\r\n        uint256 hashVal = uint256(block.blockhash(lastBlockNumber));\r\n        \r\n        // This turns the input data into a 100-sided die\r\n        // by dividing by ceil(2 ^ 256 / 100).\r\n        uint256 FACTOR = 1157920892373161954235709850086879078532699846656405640394575840079131296399;\r\n        return (uint256(uint256(hashVal) / FACTOR) / 10) + 1;\r\n    }\r\n}",
  "sourcePath": "C:\\Side\\ori\\contracts\\Roulette.sol",
  "compiler": {
    "name": "solc",
    "version": "0.4.18+commit.9cf6e910.Emscripten.clang"
  },
  "schemaVersion": "1.0.1",
  "updatedAt": "2018-02-06T10:08:26.122Z"
}