{
  "contractName": "Standard23Token",
  "abi": [
    {
      "constant": false,
      "inputs": [
        {
          "name": "_spender",
          "type": "address"
        },
        {
          "name": "_value",
          "type": "uint256"
        }
      ],
      "name": "approve",
      "outputs": [
        {
          "name": "",
          "type": "bool"
        }
      ],
      "payable": false,
      "stateMutability": "nonpayable",
      "type": "function"
    },
    {
      "constant": true,
      "inputs": [],
      "name": "totalSupply",
      "outputs": [
        {
          "name": "",
          "type": "uint256"
        }
      ],
      "payable": false,
      "stateMutability": "view",
      "type": "function"
    },
    {
      "constant": false,
      "inputs": [
        {
          "name": "_from",
          "type": "address"
        },
        {
          "name": "_to",
          "type": "address"
        },
        {
          "name": "_value",
          "type": "uint256"
        }
      ],
      "name": "transferFrom",
      "outputs": [
        {
          "name": "success",
          "type": "bool"
        }
      ],
      "payable": false,
      "stateMutability": "nonpayable",
      "type": "function"
    },
    {
      "constant": false,
      "inputs": [
        {
          "name": "_spender",
          "type": "address"
        },
        {
          "name": "_subtractedValue",
          "type": "uint256"
        }
      ],
      "name": "decreaseApproval",
      "outputs": [
        {
          "name": "success",
          "type": "bool"
        }
      ],
      "payable": false,
      "stateMutability": "nonpayable",
      "type": "function"
    },
    {
      "constant": true,
      "inputs": [
        {
          "name": "_owner",
          "type": "address"
        }
      ],
      "name": "balanceOf",
      "outputs": [
        {
          "name": "balance",
          "type": "uint256"
        }
      ],
      "payable": false,
      "stateMutability": "view",
      "type": "function"
    },
    {
      "constant": false,
      "inputs": [
        {
          "name": "_to",
          "type": "address"
        },
        {
          "name": "_value",
          "type": "uint256"
        }
      ],
      "name": "transfer",
      "outputs": [
        {
          "name": "success",
          "type": "bool"
        }
      ],
      "payable": false,
      "stateMutability": "nonpayable",
      "type": "function"
    },
    {
      "constant": false,
      "inputs": [
        {
          "name": "_from",
          "type": "address"
        },
        {
          "name": "_to",
          "type": "address"
        },
        {
          "name": "_value",
          "type": "uint256"
        },
        {
          "name": "_data",
          "type": "bytes"
        }
      ],
      "name": "transferFrom",
      "outputs": [
        {
          "name": "success",
          "type": "bool"
        }
      ],
      "payable": false,
      "stateMutability": "nonpayable",
      "type": "function"
    },
    {
      "constant": false,
      "inputs": [
        {
          "name": "_to",
          "type": "address"
        },
        {
          "name": "_value",
          "type": "uint256"
        },
        {
          "name": "_data",
          "type": "bytes"
        }
      ],
      "name": "transfer",
      "outputs": [
        {
          "name": "success",
          "type": "bool"
        }
      ],
      "payable": false,
      "stateMutability": "nonpayable",
      "type": "function"
    },
    {
      "constant": false,
      "inputs": [
        {
          "name": "_spender",
          "type": "address"
        },
        {
          "name": "_addedValue",
          "type": "uint256"
        }
      ],
      "name": "increaseApproval",
      "outputs": [
        {
          "name": "success",
          "type": "bool"
        }
      ],
      "payable": false,
      "stateMutability": "nonpayable",
      "type": "function"
    },
    {
      "constant": true,
      "inputs": [
        {
          "name": "_owner",
          "type": "address"
        },
        {
          "name": "_spender",
          "type": "address"
        }
      ],
      "name": "allowance",
      "outputs": [
        {
          "name": "remaining",
          "type": "uint256"
        }
      ],
      "payable": false,
      "stateMutability": "view",
      "type": "function"
    },
    {
      "anonymous": false,
      "inputs": [
        {
          "indexed": true,
          "name": "_from",
          "type": "address"
        },
        {
          "indexed": true,
          "name": "_to",
          "type": "address"
        },
        {
          "indexed": false,
          "name": "_value",
          "type": "uint256"
        },
        {
          "indexed": true,
          "name": "_data",
          "type": "bytes"
        }
      ],
      "name": "Transfer",
      "type": "event"
    },
    {
      "anonymous": false,
      "inputs": [
        {
          "indexed": true,
          "name": "owner",
          "type": "address"
        },
        {
          "indexed": true,
          "name": "spender",
          "type": "address"
        },
        {
          "indexed": false,
          "name": "value",
          "type": "uint256"
        }
      ],
      "name": "Approval",
      "type": "event"
    },
    {
      "anonymous": false,
      "inputs": [
        {
          "indexed": true,
          "name": "from",
          "type": "address"
        },
        {
          "indexed": true,
          "name": "to",
          "type": "address"
        },
        {
          "indexed": false,
          "name": "value",
          "type": "uint256"
        }
      ],
      "name": "Transfer",
      "type": "event"
    }
  ],
  "bytecode": "0x6060604052611c49806100136000396000f3006060604052600436106100a4576000357c0100000000000000000000000000000000000000000000000000000000900463ffffffff168063095ea7b3146100a957806318160ddd1461010357806323b872dd1461012c57806366188463146101a557806370a08231146101ff578063a9059cbb1461024c578063ab67aa58146102a6578063be45fd6214610362578063d73dd623146103ff578063dd62ed3e14610459575b600080fd5b34156100b457600080fd5b6100e9600480803573ffffffffffffffffffffffffffffffffffffffff169060200190919080359060200190919050506104c5565b604051808215151515815260200191505060405180910390f35b341561010e57600080fd5b61011661064c565b6040518082815260200191505060405180910390f35b341561013757600080fd5b61018b600480803573ffffffffffffffffffffffffffffffffffffffff1690602001909190803573ffffffffffffffffffffffffffffffffffffffff16906020019091908035906020019091905050610652565b604051808215151515815260200191505060405180910390f35b34156101b057600080fd5b6101e5600480803573ffffffffffffffffffffffffffffffffffffffff1690602001909190803590602001909190505061091f565b604051808215151515815260200191505060405180910390f35b341561020a57600080fd5b610236600480803573ffffffffffffffffffffffffffffffffffffffff16906020019091905050610bb0565b6040518082815260200191505060405180910390f35b341561025757600080fd5b61028c600480803573ffffffffffffffffffffffffffffffffffffffff16906020019091908035906020019091905050610c46565b604051808215151515815260200191505060405180910390f35b34156102b157600080fd5b610348600480803573ffffffffffffffffffffffffffffffffffffffff1690602001909190803573ffffffffffffffffffffffffffffffffffffffff1690602001909190803590602001909190803590602001908201803590602001908080601f01602080910402602001604051908101604052809392919081815260200183838082843782019150505050505091905050610dfc565b604051808215151515815260200191505060405180910390f35b341561036d57600080fd5b6103e5600480803573ffffffffffffffffffffffffffffffffffffffff1690602001909190803590602001909190803590602001908201803590602001908080601f0160208091040260200160405190810160405280939291908181526020018383808284378201915050505050509190505061110b565b604051808215151515815260200191505060405180910390f35b341561040a57600080fd5b61043f600480803573ffffffffffffffffffffffffffffffffffffffff169060200190919080359060200190919050506112cd565b604051808215151515815260200191505060405180910390f35b341561046457600080fd5b6104af600480803573ffffffffffffffffffffffffffffffffffffffff1690602001909190803573ffffffffffffffffffffffffffffffffffffffff169060200190919050506114c9565b6040518082815260200191505060405180910390f35b60008082148061055157506000600260003373ffffffffffffffffffffffffffffffffffffffff1673ffffffffffffffffffffffffffffffffffffffff16815260200190815260200160002060008573ffffffffffffffffffffffffffffffffffffffff1673ffffffffffffffffffffffffffffffffffffffff16815260200190815260200160002054145b151561055c57600080fd5b81600260003373ffffffffffffffffffffffffffffffffffffffff1673ffffffffffffffffffffffffffffffffffffffff16815260200190815260200160002060008573ffffffffffffffffffffffffffffffffffffffff1673ffffffffffffffffffffffffffffffffffffffff168152602001908152602001600020819055508273ffffffffffffffffffffffffffffffffffffffff163373ffffffffffffffffffffffffffffffffffffffff167f8c5be1e5ebec7d5bd14f71427d1e84f3dd0314c0f7b2291e5b200ac8c7c3b925846040518082815260200191505060405180910390a36001905092915050565b60005481565b6000838360008273ffffffffffffffffffffffffffffffffffffffff16141580156106aa5750600073ffffffffffffffffffffffffffffffffffffffff168273ffffffffffffffffffffffffffffffffffffffff1614155b80156106cd575060008273ffffffffffffffffffffffffffffffffffffffff1614155b801561074c575060008173ffffffffffffffffffffffffffffffffffffffff16141580156107285750600073ffffffffffffffffffffffffffffffffffffffff168173ffffffffffffffffffffffffffffffffffffffff1614155b801561074b575060008173ffffffffffffffffffffffffffffffffffffffff1614155b5b151561075757600080fd5b8360008111151561076757600080fd5b84600160008973ffffffffffffffffffffffffffffffffffffffff1673ffffffffffffffffffffffffffffffffffffffff16815260200190815260200160002054101580156107b65750600085115b801561083e575084600260008973ffffffffffffffffffffffffffffffffffffffff1673ffffffffffffffffffffffffffffffffffffffff16815260200190815260200160002060003373ffffffffffffffffffffffffffffffffffffffff1673ffffffffffffffffffffffffffffffffffffffff1681526020019081526020016000205410155b80156108d95750600160008773ffffffffffffffffffffffffffffffffffffffff1673ffffffffffffffffffffffffffffffffffffffff168152602001908152602001600020546108d786600160008a73ffffffffffffffffffffffffffffffffffffffff1673ffffffffffffffffffffffffffffffffffffffff1681526020019081526020016000205461155090919063ffffffff16565b115b15156108e457600080fd5b61091387878760006040518059106108f95750595b9080825280601f01601f1916602001820160405250610dfc565b93505050509392505050565b600080600260003373ffffffffffffffffffffffffffffffffffffffff1673ffffffffffffffffffffffffffffffffffffffff16815260200190815260200160002060008573ffffffffffffffffffffffffffffffffffffffff1673ffffffffffffffffffffffffffffffffffffffff16815260200190815260200160002054905080831115610a30576000600260003373ffffffffffffffffffffffffffffffffffffffff1673ffffffffffffffffffffffffffffffffffffffff16815260200190815260200160002060008673ffffffffffffffffffffffffffffffffffffffff1673ffffffffffffffffffffffffffffffffffffffff16815260200190815260200160002081905550610ac4565b610a43838261156e90919063ffffffff16565b600260003373ffffffffffffffffffffffffffffffffffffffff1673ffffffffffffffffffffffffffffffffffffffff16815260200190815260200160002060008673ffffffffffffffffffffffffffffffffffffffff1673ffffffffffffffffffffffffffffffffffffffff168152602001908152602001600020819055505b8373ffffffffffffffffffffffffffffffffffffffff163373ffffffffffffffffffffffffffffffffffffffff167f8c5be1e5ebec7d5bd14f71427d1e84f3dd0314c0f7b2291e5b200ac8c7c3b925600260003373ffffffffffffffffffffffffffffffffffffffff1673ffffffffffffffffffffffffffffffffffffffff16815260200190815260200160002060008873ffffffffffffffffffffffffffffffffffffffff1673ffffffffffffffffffffffffffffffffffffffff168152602001908152602001600020546040518082815260200191505060405180910390a3600191505092915050565b60008160008173ffffffffffffffffffffffffffffffffffffffff1614158015610c075750600073ffffffffffffffffffffffffffffffffffffffff168173ffffffffffffffffffffffffffffffffffffffff1614155b8015610c2a575060008173ffffffffffffffffffffffffffffffffffffffff1614155b1515610c3557600080fd5b610c3e83611587565b915050919050565b60008260008173ffffffffffffffffffffffffffffffffffffffff1614158015610c9d5750600073ffffffffffffffffffffffffffffffffffffffff168173ffffffffffffffffffffffffffffffffffffffff1614155b8015610cc0575060008173ffffffffffffffffffffffffffffffffffffffff1614155b1515610ccb57600080fd5b82600081111515610cdb57600080fd5b83600160003373ffffffffffffffffffffffffffffffffffffffff1673ffffffffffffffffffffffffffffffffffffffff1681526020019081526020016000205410158015610db95750600160008673ffffffffffffffffffffffffffffffffffffffff1673ffffffffffffffffffffffffffffffffffffffff16815260200190815260200160002054610db785600160008973ffffffffffffffffffffffffffffffffffffffff1673ffffffffffffffffffffffffffffffffffffffff1681526020019081526020016000205461155090919063ffffffff16565b115b1515610dc457600080fd5b610df285856000604051805910610dd85750595b9080825280601f01601f191660200182016040525061110b565b9250505092915050565b6000848460008273ffffffffffffffffffffffffffffffffffffffff1614158015610e545750600073ffffffffffffffffffffffffffffffffffffffff168273ffffffffffffffffffffffffffffffffffffffff1614155b8015610e77575060008273ffffffffffffffffffffffffffffffffffffffff1614155b8015610ef6575060008173ffffffffffffffffffffffffffffffffffffffff1614158015610ed25750600073ffffffffffffffffffffffffffffffffffffffff168173ffffffffffffffffffffffffffffffffffffffff1614155b8015610ef5575060008173ffffffffffffffffffffffffffffffffffffffff1614155b5b1515610f0157600080fd5b84600081111515610f1157600080fd5b85600160008a73ffffffffffffffffffffffffffffffffffffffff1673ffffffffffffffffffffffffffffffffffffffff1681526020019081526020016000205410158015610fdc575085600260008a73ffffffffffffffffffffffffffffffffffffffff1673ffffffffffffffffffffffffffffffffffffffff16815260200190815260200160002060003373ffffffffffffffffffffffffffffffffffffffff1673ffffffffffffffffffffffffffffffffffffffff1681526020019081526020016000205410155b80156110775750600160008873ffffffffffffffffffffffffffffffffffffffff1673ffffffffffffffffffffffffffffffffffffffff1681526020019081526020016000205461107587600160008b73ffffffffffffffffffffffffffffffffffffffff1673ffffffffffffffffffffffffffffffffffffffff1681526020019081526020016000205461155090919063ffffffff16565b115b151561108257600080fd5b6000861180156110be57508673ffffffffffffffffffffffffffffffffffffffff168873ffffffffffffffffffffffffffffffffffffffff1614155b156110fb576110ce8888886115d0565b15156110d957600080fd5b6110e2876118bc565b156110fa576110f3888888886118cf565b9350611100565b5b600193505b505050949350505050565b60008360008173ffffffffffffffffffffffffffffffffffffffff16141580156111625750600073ffffffffffffffffffffffffffffffffffffffff168173ffffffffffffffffffffffffffffffffffffffff1614155b8015611185575060008173ffffffffffffffffffffffffffffffffffffffff1614155b151561119057600080fd5b836000811115156111a057600080fd5b84600160003373ffffffffffffffffffffffffffffffffffffffff1673ffffffffffffffffffffffffffffffffffffffff168152602001908152602001600020541015801561127e5750600160008773ffffffffffffffffffffffffffffffffffffffff1673ffffffffffffffffffffffffffffffffffffffff1681526020019081526020016000205461127c86600160008a73ffffffffffffffffffffffffffffffffffffffff1673ffffffffffffffffffffffffffffffffffffffff1681526020019081526020016000205461155090919063ffffffff16565b115b151561128957600080fd5b6112938686611a47565b151561129e57600080fd5b6112a7866118bc565b156112bf576112b8338787876118cf565b92506112c4565b600192505b50509392505050565b600061135e82600260003373ffffffffffffffffffffffffffffffffffffffff1673ffffffffffffffffffffffffffffffffffffffff16815260200190815260200160002060008673ffffffffffffffffffffffffffffffffffffffff1673ffffffffffffffffffffffffffffffffffffffff1681526020019081526020016000205461155090919063ffffffff16565b600260003373ffffffffffffffffffffffffffffffffffffffff1673ffffffffffffffffffffffffffffffffffffffff16815260200190815260200160002060008573ffffffffffffffffffffffffffffffffffffffff1673ffffffffffffffffffffffffffffffffffffffff168152602001908152602001600020819055508273ffffffffffffffffffffffffffffffffffffffff163373ffffffffffffffffffffffffffffffffffffffff167f8c5be1e5ebec7d5bd14f71427d1e84f3dd0314c0f7b2291e5b200ac8c7c3b925600260003373ffffffffffffffffffffffffffffffffffffffff1673ffffffffffffffffffffffffffffffffffffffff16815260200190815260200160002060008773ffffffffffffffffffffffffffffffffffffffff1673ffffffffffffffffffffffffffffffffffffffff168152602001908152602001600020546040518082815260200191505060405180910390a36001905092915050565b6000600260008473ffffffffffffffffffffffffffffffffffffffff1673ffffffffffffffffffffffffffffffffffffffff16815260200190815260200160002060008373ffffffffffffffffffffffffffffffffffffffff1673ffffffffffffffffffffffffffffffffffffffff16815260200190815260200160002054905092915050565b600080828401905083811015151561156457fe5b8091505092915050565b600082821115151561157c57fe5b818303905092915050565b6000600160008373ffffffffffffffffffffffffffffffffffffffff1673ffffffffffffffffffffffffffffffffffffffff168152602001908152602001600020549050919050565b600080600073ffffffffffffffffffffffffffffffffffffffff168473ffffffffffffffffffffffffffffffffffffffff161415151561160f57600080fd5b600260008673ffffffffffffffffffffffffffffffffffffffff1673ffffffffffffffffffffffffffffffffffffffff16815260200190815260200160002060003373ffffffffffffffffffffffffffffffffffffffff1673ffffffffffffffffffffffffffffffffffffffff1681526020019081526020016000205490506116e083600160008873ffffffffffffffffffffffffffffffffffffffff1673ffffffffffffffffffffffffffffffffffffffff1681526020019081526020016000205461156e90919063ffffffff16565b600160008773ffffffffffffffffffffffffffffffffffffffff1673ffffffffffffffffffffffffffffffffffffffff1681526020019081526020016000208190555061177583600160008773ffffffffffffffffffffffffffffffffffffffff1673ffffffffffffffffffffffffffffffffffffffff1681526020019081526020016000205461155090919063ffffffff16565b600160008673ffffffffffffffffffffffffffffffffffffffff1673ffffffffffffffffffffffffffffffffffffffff168152602001908152602001600020819055506117cb838261156e90919063ffffffff16565b600260008773ffffffffffffffffffffffffffffffffffffffff1673ffffffffffffffffffffffffffffffffffffffff16815260200190815260200160002060003373ffffffffffffffffffffffffffffffffffffffff1673ffffffffffffffffffffffffffffffffffffffff168152602001908152602001600020819055508373ffffffffffffffffffffffffffffffffffffffff168573ffffffffffffffffffffffffffffffffffffffff167fddf252ad1be2c89b69c2b068fc378daa952ba7f163c4a11628f55a4df523b3ef856040518082815260200191505060405180910390a360019150509392505050565b600080823b905060008111915050919050565b6000808490508073ffffffffffffffffffffffffffffffffffffffff16634c123019338887876000604051602001526040518563ffffffff167c0100000000000000000000000000000000000000000000000000000000028152600401808573ffffffffffffffffffffffffffffffffffffffff1673ffffffffffffffffffffffffffffffffffffffff1681526020018473ffffffffffffffffffffffffffffffffffffffff1673ffffffffffffffffffffffffffffffffffffffff16815260200183815260200180602001828103825283818151815260200191508051906020019080838360005b838110156119d35780820151818401526020810190506119b8565b50505050905090810190601f168015611a005780820380516001836020036101000a031916815260200191505b5095505050505050602060405180830381600087803b1515611a2157600080fd5b6102c65a03f11515611a3257600080fd5b50505060405180519050915050949350505050565b60008073ffffffffffffffffffffffffffffffffffffffff168373ffffffffffffffffffffffffffffffffffffffff1614151515611a8457600080fd5b611ad682600160003373ffffffffffffffffffffffffffffffffffffffff1673ffffffffffffffffffffffffffffffffffffffff1681526020019081526020016000205461156e90919063ffffffff16565b600160003373ffffffffffffffffffffffffffffffffffffffff1673ffffffffffffffffffffffffffffffffffffffff16815260200190815260200160002081905550611b6b82600160008673ffffffffffffffffffffffffffffffffffffffff1673ffffffffffffffffffffffffffffffffffffffff1681526020019081526020016000205461155090919063ffffffff16565b600160008573ffffffffffffffffffffffffffffffffffffffff1673ffffffffffffffffffffffffffffffffffffffff168152602001908152602001600020819055508273ffffffffffffffffffffffffffffffffffffffff163373ffffffffffffffffffffffffffffffffffffffff167fddf252ad1be2c89b69c2b068fc378daa952ba7f163c4a11628f55a4df523b3ef846040518082815260200191505060405180910390a360019050929150505600a165627a7a72305820e2700c3b20650ee178714b381485e62ae029b0d70228e6540cea48fd4f26f51b0029",
  "source": "\r\npragma solidity ^0.4.15;\r\n\r\nimport './Utils.sol';\r\nimport './interface/ERC23.sol';\r\nimport './interface/ERC23Receiver.sol';\r\nimport './Basic23Token.sol';\r\nimport '../installed_contracts/zeppelin-solidity/contracts/token/StandardToken.sol';\r\n\r\n/**\r\n * @title Standard ERC23 token\r\n * @dev Implementation of the basic standard token ERC23.\r\n *\r\n * created by IAM <DEV> (Elky Bachtiar) \r\n * https://www.iamdeveloper.io\r\n * Changes made base on ERC20 Token Stadard and Solidity version 0.4.13\r\n * https://theethereum.wiki/w/index.php/ERC20_Token_Standard\r\n */\r\ncontract Standard23Token is Utils, ERC23, Basic23Token, StandardToken {\r\n\r\n    /**\r\n     * @dev Transfer tokens from one address to another\r\n     * @dev Full compliance to ERC-20 and predictable behavior\r\n     * https://docs.google.com/presentation/d/1sOuulAU1QirYtwHJxEbCsM_5LvuQs0YTbtLau8rRxpk/edit#slide=id.p24\r\n     * \r\n     * @param _from address The address which you want to send tokens from\r\n     * @param _to address The address which you want to transfer to\r\n     * @param _value uint256 the amout of tokens to be transfered\r\n     * @param _data is arbitrary data sent with the token transferFrom. Simulates ether tx.data\r\n     * @return bool successful or not\r\n   */\r\n    function transferFrom(address _from, address _to, uint256 _value, bytes _data)\r\n        validAddresses(_from, _to) \r\n        greaterThanZero(_value)\r\n        returns (bool success)\r\n    {\r\n        // Ensure _from has enough balance to send amount \r\n        // and ensure the send _value is greater than 0\r\n        // and ensure allowed[_from][msg.sender] is greate or equal to send amount to send\r\n        // and Detect balance overflow\r\n        require(\r\n                balances[_from] >= _value && \r\n                allowed[_from][msg.sender] >= _value &&\r\n                balances[_to].add(_value) > balances[_to]\r\n        );\r\n\r\n        if (_value > 0 && _from != _to) {\r\n            require(super.transferFrom(_from, _to, _value)); // do a normal token transfer\r\n            if (isContract(_to)) {\r\n                return contractFallback(_from, _to, _value, _data);\r\n            }\r\n        }\r\n        return true;\r\n    }\r\n\r\n\r\n    /**\r\n     * @dev Transfer tokens from one address to another\r\n     * @dev Full compliance to ERC-20 and predictable behavior\r\n     * https://docs.google.com/presentation/d/1sOuulAU1QirYtwHJxEbCsM_5LvuQs0YTbtLau8rRxpk/edit#slide=id.p24\r\n     * \r\n     * @param _from address The address which you want to send tokens from\r\n     * @param _to address The address which you want to transfer to\r\n     * @param _value uint256 the amout of tokens to be transfered\r\n     * @return bool successful or not\r\n     */\r\n    function transferFrom(address _from, address _to, uint256 _value)\r\n        validAddresses(_from, _to) \r\n        greaterThanZero(_value)\r\n        returns (bool success)\r\n    {\r\n        // Ensure _from has enough balance to send amount \r\n        // and ensure the send _value is greater than 0\r\n        // and ensure allowed[_from][msg.sender] is greate or equal to send amount to send\r\n        // and Detect balance overflow\r\n        require(\r\n                balances[_from] >= _value \r\n                && _value > 0\r\n                && allowed[_from][msg.sender] >= _value\r\n                && balances[_to].add(_value) > balances[_to]\r\n        );\r\n\r\n        return transferFrom(_from, _to, _value, new bytes(0));\r\n    }\r\n\r\n    //compareAndApprove workaround is fixed by OpenZeppelin!!!\r\n    // With the OpenZeppelin ERC20 is now possible toincrease and decrease approval\r\n    \r\n    // A vulernability of the approve method in the ERC20 standard was identified by\r\n    // Mikhail Vladimirov and Dmitry Khovratovich here:\r\n    // https://docs.google.com/document/d/1YLPtQxZu1UAvO9cZ1O2RPXBbT0mooh4DYKjA_jp-RLM\r\n    // It's better to use this method which is not susceptible to over-withdrawing by the approvee.\r\n    /// @param _spender The address to approve\r\n    /// @param _currentValue The previous value approved, which can be retrieved with allowance(msg.sender, _spender)\r\n    /// @param _newValue The new value to approve, this will replace the _currentValue\r\n    /// @return bool Whether the approval was a success (see ERC20's `approve`)\r\n    //function compareAndApprove(address _spender, uint256 _currentValue, uint256 _newValue) public returns(bool){\r\n    //    require(allowed[msg.sender][_spender] == _currentValue);\r\n    //    return approve(_spender, _newValue);\r\n   // }\r\n}",
  "sourcePath": "C:\\Side\\ori\\installed_contracts\\ERC23\\contracts\\Standard23Token.sol",
  "compiler": {
    "name": "solc",
    "version": "0.4.18+commit.9cf6e910.Emscripten.clang"
  },
  "schemaVersion": "1.0.1",
  "updatedAt": "2018-01-11T18:19:19.041Z"
}